S0160000312D57697265526F7574696E65732E73726563C0
S11300001DC02FC02EC02DC02CC02BC02AC029C09B
S113001028C027C026C025C024C023C022C021C0B8
S113002020C01FC01EC01DC01CC01BC01AC019C0E8
S113003018C017C016C015C014C013C011241FBEA9
S1130040CFEFD2E0DEBFCDBF11E0A0E0B1E0E2E54A
S1130050F9E002C005900D92AE31B107D9F78BD10A
S113006076C4CECF882391F090E0C29AEFEFF7E404
S11300703197F1F700C00000C298EFEFF7E4319731
S1130080F1F700C000009F5F9813EFCF089590919F
S1130090860095FD06C0E6E8F0E00000908195FF3B
S11300A0FCCF809380000895DF98877088578093F1
S11300B0B000E1EBF0E080818823ECF7DF9A85E083
S11300C08A95F1F70895DF9880E48093B000E1EB1E
S11300D0F0E080818823ECF7DF9A85E08A95F1F7D8
S11300E0DF9880EC8093B000E1EBF0E0808188231E
S11300F0ECF790E1A0EBB0E0E1EBF0E01C92808142
S11301008823ECF79150D1F7DF9A85E08A95F1F7CF
S11301100895109282008FE58093810088E1809396
S1130120850086E080938400D49AD69AD79ADF9A81
S1130130E2EBF0E080818064808380818061808351
S113014080818160808380818160808380818062FE
S11301508083808188608083808184608083B3DF32
S113016080E0A2DFBA9A83E07DDF8EE390DF08951A
S1130170DF9894E49093B000E1EBF0E09081992350
S1130180ECF7DF9A95E09A95F1F7DF988093B00049
S1130190E1EBF0E080818823ECF76093B000E1EBC1
S11301A0F0E080818823ECF7DF9A85E08A95F1F707
S11301B00895E82FF0E0E050FF4F8081D9DF0895E3
S11301C0CF92DF92FF920F931F93CF93DF93FC01A3
S11301D0F62EC901009709F446C000E010E098012A
S11301E0C0E00F2EFAE0CF2ED12CF02DB6019BD318
S11301F0A0E0B0E00C2E04C0880F991FAA1FBB1FFB
S11302000A94D2F7080F191F2A1F3B1F862F972F16
S1130210CC5F009759F72AC0A02FAF70442319F080
S1130220481301C0A65FB0E0A85FBE4F9C919993AC
S1130230689413F836952795179507951694D1F772
S11302408F5F883049F715C09E919F3329F41C9223
S11302508150D1F701C087E0FF2099F0E80FF11D2C
S113026080E481830EC000E010E09801EF0180E09B
S1130270D3CF87818F3379F71782DF01179686E012
S1130280E3CFDF91CF911F910F91FF90DF90CF903B
S11302900895DB9AD39ADB9889EE96E00197F1F7FB
S11302A00000DB9AD398E9E3F1E03197F1F700001D
S11302B089B3E0EBF5E03197F1F783FB882780F908
S11302C091E089270895DB9AD39ADB98882351F02B
S11302D085E48A95F1F7DB9AD3989DED9A95F1F729
S11302E0000006C08DED90E00197F1F7DB9AD398FA
S11302F095E09A95F1F70895DB9AD39ADB9885E017
S11303008A95F1F7DB9AD39890E49A95F1F789B33B
S113031097EE9A95F1F7000083FB882780F90895FA
S1130320CF93DF93D82FC8E08D2F8170CCDFD69583
S1130330C150D1F7DF91CF910895982F990F9A7AF0
S113034086958575982B892F880F880F8C7C9695B8
S113035096959373892B82950895CF93DF93CCDF81
S1130360D7E0C82FCC0FC8DF8C0FD150D1F7E5DF11
S1130370DF91CF910895CF93DF93CDB7DEB729975F
S11303800FB6F894DEBF0FBECDBFC3DE1986212C95
S11303906E0125E0C20ED11C6894332432F879DF53
S11303A0882319F081E05EDE02C083E05BDE8CEC22
S11303B0B7DF84E4B5DF8FEF9FEBE1E2815090403B
S11303C0E040E1F700C0000064DF8CECA9DF8EEBB5
S11303D0A7DFC3DF182FC1DF682F70E0762F6627F1
S11303E0610F711D072E000C880B990B81D120E041
S11303F030E040E85DE32CD24B015C0120E030E0CA
S113040040E151E425D220E030E040EA50E4DAD083
S113041020E030E040E052E46DD02B013C0120E0CC
S113042030E040E251E4C501B40112D24B015C0159
S113043020E030E040E251E4C301B20109D22B01D3
S11304403C0120E030E0A901C501B401B7D0882304
S113045034F4B7FAB094B7F8B0942224239420E08B
S113046030E0A901C301B201A9D0882334F477FA9A
S1130470709477F87094F1E0F98720E030E040E080
S11304805FE3C501B40136D005D19B0141E0622D83
S1130490CE01019695DE2FEF8FE392E0215080404C
S11304A09040E1F700C00000FE0131967F018F010A
S11304B0802F8E19F80161918F017BDE0C151D05CB
S11304C0B9F720E030E040E05FE3C301B20112D0AD
S11304D0E1D09B0141E06985CE01019671DE132DC7
S11304E0F70161917F01812F64DE1F5F1830C1F72E
S11304F056CF5058BB27AA270ED070C161D130F017
S113050066D120F031F49F3F11F41EF456C10EF46D
S1130510E095E7FB4CC1E92F72D180F3BA1762076B
S113052073078407950718F071F49EF58AC10EF4D9
S1130530E0950B2EBA2FA02D0B01B90190010C01EF
S1130540CA01A0011124FF27591B99F0593F50F407
S1130550503E68F11A16F040A22F232F342F44275F
S1130560585FF3CF469537952795A795F040539557
S1130570C9F77EF41F16BA0B620B730B840BBAF027
S11305809150A1F0FF0FBB1F661F771F881FC2F792
S11305900EC0BA0F621F731F841F48F487957795A6
S11305A06795B795F7959E3F08F0B3CF9395880F5D
S11305B008F09927EE0F979587950895D4D008F4FD
S11305C081E008950CD00AC102D140F0F9D030F096
S11305D021F45F3F19F0EBC0511134C1EEC00FD1CB
S11305E098F39923C9F35523B1F3951B550BBB27F6
S11305F0AA2762177307840738F09F5F5F4F220FA3
S1130600331F441FAA1FA9F333D00E2E3AF0E0E89B
S113061030D091505040E695001CCAF729D0FE2FE7
S113062027D0660F771F881FBB1F26173707480779
S1130630AB07B0E809F0BB0B802DBF01FF2793582F
S11306405F4F2AF09E3F510568F0B1C0FBC05F3F89
S1130650ECF3983EDCF3869577956795B795F79517
S11306609F5FC9F7880F911D9695879597F908950F
S1130670E1E0660F771F881FBB1F621773078407AB
S1130680BA0720F0621B730B840BBA0BEE1F88F7BA
S1130690E0950895BCD088F09F5790F0B92F992722
S11306A0B751A0F0D1F0660F771F881F991F1AF079
S11306B0BA95C9F712C0B13081F0C3D0B1E0089542
S11306C0C0C0672F782F8827B85F39F0B93FCCF3C3
S11306D0869577956795B395D9F73EF4909580956F
S11306E0709561957F4F8F4F9F4F0895E89409C08F
S11306F097FB3EF490958095709561957F4F8F4F51
S11307009F4F9923A9F0F92F96E9BB279395F69566
S1130710879577956795B795F111F8CFFAF4BB0FE4
S113072011F460FF1BC06F5F7F4F8F4F9F4F16C048
S1130730882311F096E911C0772321F09EE8872FD2
S1130740762F05C0662371F096E8862F70E060E08E
S11307502AF09A95660F771F881FDAF7880F969507
S1130760879597F90895990F0008550FAA0BE0E8AB
S1130770FEEF16161706E807F907C0F0121613065F
S1130780E407F50798F0621B730B840B950B39F49F
S11307900A2661F0232B242B252B21F408950A2605
S11307A009F4A140A6958FEF811D811D089597F945
S11307B09F6780E870E060E008959FEF80EC089503
S11307C000240A941616170618060906089500242C
S11307D00A9412161306140605060895092E0394A6
S11307E0000C11F4882352F0BB0F40F4BF2B11F41A
S11307F060FF04C06F5F7F4F8F4F9F4F089557FD79
S11308009058440F551F59F05F3F71F04795880F7A
S113081097FB991F61F09F3F79F087950895121611
S113082013061406551FF2CF4695F1DF08C01616BD
S113083017061806991FF1CF86957105610508946E
S11308400895E894BB2766277727CB0197F9089585
S11308500AD0C4CFB5DF28F0BADF18F0952309F029
S1130860A6CFABCFEFCFCBDFA8F39923D9F3552392
S1130870C9F3950F50E0551FAA27EE27FF27BB2782
S113088000240894679520F4E20FF31FB41F0A1E96
S1130890220F331F441FAA1F6695A9F7779530F4DA
S11308A0F30FB41F0A1E121E08F46395330F441F7E
S11308B0AA1F221F769599F7879520F4B40F0A1E74
S11308C0121E631F440FAA1F221F331F8695A9F708
S11308D0862F712D602D11249F5750408AF0E1F02E
S11308E088234AF0EE0FFF1FBB1F661F771F881F68
S11308F091505040A9F79E3F510570F058CFA2CFB8
S11309005F3FECF3983EDCF3869577956795B79552
S1130910F795E7959F5FC1F7FE2B880F911D96957C
S1130920879597F90895AA1BBB1B51E107C0AA1F1D
S1130930BB1FA617B70710F0A61BB70B881F991F7C
S11309405A95A9F780959095BC01CD010895F89426
S1050950FFCFD3
S1130952CECCCAC8C6C4C2C03F065B4F666D7D0713
S11109627F6FBF86DBCFE6EDFD87FFEF400021
S9030000FC
